:1000000014C1000040C100003EC100003CC100001E
:100010003AC1000038C1000036C1000034C1000000
:1000200032C1000030C100002EC100002CC1000010
:100030002AC1000028C1000026C1000024C1000020
:1000400022C1000020C100001EC100001CC1000030
:100050001AC1000018C1000016C100003AC3000018
:1000600012C10000A9C300007EC300000CC1000043
:100070000AC1000008C1000006C1000004C1000060
:1000800002C1000000C10000FEC00000FCC0000072
:10009000FAC00000F8C00000F6C00000C3C30000B2
:1000A000F2C00000F0C00000EEC00000ECC0000094
:1000B000EAC00000E8C00000E6C00000E4C00000A4
:1000C000E2C00000E0C00000DEC00000DCC00000B4
:1000D000DAC00000D8C00000D6C00000D4C00000C4
:1000E000D2C000006F017201610165016901A901BF
:1000F00076017A018001840188018E0192019601C6
:10010000A9019C01A001A4010000210024002700F6
:100110002A002D0030003300010100000401070116
:100120000A01000020002300260029002C002F00D7
:100130003200000100000301060109010000220055
:10014000250028002B002E003100340002010000A1
:10015000050108010B010505050507050808080844
:10016000020202020A0A080804040404010101014F
:10017000010101010303030303030303040707074A
:100180000C0C0C0C0C0C0C0C0202020206060606EF
:10019000060606060B0B0B0B0B0B0B0B01021020BC
:1001A00020080810204010204080020102010804AD
:1001B0000201010204081020408080402010080441
:1001C000020180040201804020100804020108049A
:1001D00002010102040810204080010204081020DE
:1001E000408000000A0B02090C0D0E0807030401F1
:1001F00000000000000000000000000000000000FF
:1002000000000000000000000000000000001211CB
:1002100010000000000000000000000000000000CE
:100220000000000000000000880511241FBECFEF71
:10023000D1E2DEBFCDBF00E00CBF12E0A0E0B2E033
:10024000ECE4F1E100E00BBF02C007900D92A23395
:10025000B107D9F723E0A2E3B2E001C01D92AB35AC
:10026000B207E1F711E0C5E1D1E000E005C0219758
:100270000109802FFE015CD7C431D10780E0080757
:10028000B1F77FD461C7BCCECF93C82FE5EEF1E0C4
:100290004491EFE9F1E02491E9E5F1E094919923AB
:1002A00009F46AC0442309F454C050E0FA013197BC
:1002B000E231F10508F04DC08827EE58FF4F8F4F0F
:1002C00037C7809180008F7707C0809180008F7D35
:1002D00003C080918000877F809380003AC084B5FE
:1002E0008F7702C084B58F7D84BD33C08091B0000C
:1002F0008F7703C08091B0008F7D8093B00029C0BC
:10030000809190008F7707C0809190008F7D03C00F
:1003100080919000877F809390001BC08091A00007
:100320008F7707C08091A0008F7D03C08091A000CF
:10033000877F8093A0000DC0309120013F7707C0D8
:10034000309120013F7D03C030912001377F3093F1
:100350002001E92FF0E0EE0FFF1FE45CFE4FA591B6
:10036000B4918FB7F894EC91C11103C020952E235E
:1003700001C02E2B2C938FBFCF910895CF92DF9287
:10038000EF92FF920F931F93CF93DF936C017A014B
:100390008B01C0E0D0E0CE15DF0589F0D8016D916A
:1003A0008D01D601ED91FC910190F081E02DC60107
:1003B0001995892B11F47E0102C02196ECCFC7015B
:1003C000DF91CF911F910F91FF90EF90DF90CF9031
:1003D0000895FC01538D448D252F30E0842F90E04B
:1003E000821B930B541710F0CF9608950197089530
:1003F000FC01918D828D981761F0828DDF01A80F2D
:10040000B11D5D968C91928D9F5F9F73928F90E04E
:1004100008958FEF9FEF0895FC01918D828D9817BD
:1004200031F0828DE80FF11D858D90E008958FEFFA
:100430009FEF0895FC01918D228D892F90E0805CC3
:100440009F4F821B91098F739927089582EB92E049
:10045000F1DF21E0892B09F420E0822F0895FC01CF
:10046000848DDF01A80FB11DA35ABF4F2C91848D3D
:1004700090E001968F739927848FA689B7892C9372
:10048000A089B1898C9180648C93938D848D98130D
:1004900006C00288F389E02D80818F7D80830895D6
:1004A000EF92FF920F931F93CF93DF93EC0181E0C4
:1004B000888F9B8D8C8D981305C0E889F989808180
:1004C00085FD23C0F62E0B8D10E00F5F1F4F0F73BD
:1004D0001127E02E8C8DE8120BC00FB607FCFACF67
:1004E000E889F989808185FFF5CFCE01B8DFF2CFA9
:1004F0008B8DFE01E80FF11DE35AFF4FF0820B8F49
:10050000EA89FB898081806207C0EE89FF89608368
:10051000E889F98980818064808381E090E0DF91BF
:10052000CF911F910F91FF90EF900895CF93DF939C
:10053000EC01888D8823C1F0EA89FB89808185FDE3
:1005400005C0A889B9898C9186FD0EC00FB607FC3D
:10055000F5CF808185FFF2CFA889B9898C9185FF7D
:10056000EDCFCE017CDFE8CFDF91CF91089580E021
:1005700090E0892B19F06ADF811125C080E090E0BE
:10058000892B41F080E090E0892B21F00E9400004F
:1005900081111CC080E090E0892B41F080E090E068
:1005A000892B21F00E940000811113C080E090E0AF
:1005B000892BA1F080E090E0892B81F00E9400005F
:1005C00081110AC008950E940000D8CF0E94000047
:1005D000E1CF0E940000EACF0C9400000895089536
:1005E0008FEF9FEF08958FEF9FEF08958091A00206
:1005F00090E09195819591090895089580E090E0AB
:10060000089585ED8093BC008091BC0084FDFCCFF3
:1006100010927A02089540915402262F30E0240F60
:10062000311D21323105DCF420917A022430C9F4E5
:10063000FC0180E090E0861758F43091540221913B
:10064000DC01AE5CBD4FA30FB11D2C930196F3CF1F
:1006500080915402680F6093540280E0089581E015
:10066000089582E00895CF93DF931F921F92CDB734
:10067000DEB7CB01642F49835A83CDDF4981842FB4
:100680005A81952F0F900F90DF91CF910895CF93BE
:10069000DF931F92CDB7DEB7698361E0CE0101968B
:1006A000BADF81E090E00F90DF91CF91089500973D
:1006B00061F0FC0101900020E9F73197AF01481B80
:1006C000590BBC0182EB92E059CE80E090E0089596
:1006D00037D51F920F920FB60F9211242F933F938D
:1006E0008F939F93AF93BF938091AE029091AF028F
:1006F000A091B002B091B1023091AD0223E0230F7E
:100700002D3720F40196A11DB11D05C026E8230F49
:100710000296A11DB11D2093AD028093AE0290936D
:10072000AF02A093B002B093B1028091A902909160
:10073000AA02A091AB02B091AC020196A11DB11D1D
:100740008093A9029093AA02A093AB02B093AC024B
:10075000BF91AF919F918F913F912F910F900FBEBD
:100760000F901F9018951F920F920FB60F921124A1
:100770000BB60F922F933F934F935F936F937F939B
:100780008F939F93AF93BF93EF93FF9382EB92E08E
:1007900066DEFF91EF91BF91AF919F918F917F9115
:1007A0006F915F914F913F912F910F900BBE0F90E2
:1007B0000FBE0F901F9018951F920F920FB60F92B9
:1007C00011240BB60F922F938F939F93EF93FF9368
:1007D000E091C202F091C3028081E091C802F091E1
:1007E000C90282FD12C090818091CB028F5F8F730E
:1007F0002091CC02821751F0E091CB02F0E0EE5450
:10080000FD4F958F8093CB0201C08081FF91EF91C6
:100810009F918F912F910F900BBE0F900FBE0F9055
:100820001F9018951F920F920FB60F9211240BB6BE
:100830000F922F933F934F935F936F937F938F9379
:100840009F93AF93BF93EF93FF938091B900887FFD
:10085000803609F49CC068F5883209F45BC090F4D6
:10086000803109F454C038F4882309F4F6C0883084
:1008700009F44DC0F5C0883109F44CC0803209F448
:100880005DC0EEC0803409F468C048F4803309F4D8
:1008900055C0883309F0E4C080937902D8C0803510
:1008A00009F44FC0883509F45DC0883409F0D8C018
:1008B000D6C0883909F4C7C0A8F4883709F467C0DE
:1008C00038F4883609F463C0803709F460C0C8C0C2
:1008D000883809F4B8C0803909F45FC0803809F05D
:1008E000BFC05BC0803B09F486C038F4803A09F48D
:1008F00066C0883A09F47FC0B3C0803C09F4A7C041
:10090000883C09F4A4C0883B09F48AC0A9C080913E
:100910009F0210C090919E0280919D02981770F5E1
:10092000E0919E0281E08E0F80939E02F0E0E358FA
:10093000FD4F80818093BB0085EC86C08093790257
:100940008EC0E0919E0281E08E0F80939E02809186
:10095000BB00F0E0E358FD4F808390919E028091B0
:100960009D026EC0E0919E0281E08E0F80939E02F8
:100970008091BB00F0E0E358FD4F808380917C02C2
:1009800081116DC081E080937B0284EA61C083E0C5
:1009900080937A0210927802CFCF809178028032D1
:1009A00008F051C0E091780281E08E0F80937802C8
:1009B0008091BB00F0E0E85AFD4F8083BDCF85EC0D
:1009C0008093BC0010927A0280917802803230F4D9
:1009D000E0917802F0E0E85AFD4F108260917802D1
:1009E00070E0E0915602F091570288E592E0199587
:1009F0001092780235C084E080937A0210925502FA
:100A000010925402E0915202F09153021995809194
:100A10005402811105C081E0809354021092320289
:100A2000E091550281E08E0F80935502F0E0EE5C7C
:100A3000FD4F80818093BB009091550280915402BC
:100A4000981708F479CF85E88093BC0009C085EC3D
:100A50008093BC0010927A0203C010927902D1DD1B
:100A6000FF91EF91BF91AF919F918F917F916F9186
:100A70005F914F913F912F910F900BBE0F900FBE42
:100A80000F901F901895CF92DF92EF92FF920F93E5
:100A90001F93E82FF92F05C00150110921093109D1
:100AA00061F1908196239417B9F305C001501109A3
:100AB0002109310911F1908196239413F7CFC12CAC
:100AC000D12CE12CF12C0AC08FEFC81AD80AE80A01
:100AD000F80A0C151D052E053F0579F08081862347
:100AE000841791F36C2D7D2D8E2D9F2D1F910F91CD
:100AF000FF90EF90DF90CF90089560E070E080E08D
:100B000090E01F910F91FF90EF90DF90CF900895AC
:100B1000E2EBF2E01382128288EE93E0A0E0B0E014
:100B200084839583A683B78324E032E031832083D6
:100B300025EC30E03587248724EC30E037872687A2
:100B400020EC30E0318B208B21EC30E0338B228B9A
:100B500022EC30E0358B248B26EC30E0378B268B73
:100B6000118E128E138E148EEFE4F3E01382128234
:100B700084839583A683B78386E192E09183808303
:100B80000895CF93DF93CDB7DEB7A1970FB6F89452
:100B9000DEBF0FBECDBF789484B5826084BD84B5BE
:100BA000816084BD85B5826085BD85B5816085BD68
:100BB00080916E00816080936E0010928100809120
:100BC00081008260809381008091810081608093A8
:100BD0008100809180008160809380008091B100CD
:100BE00084608093B1008091B00081608093B000F8
:100BF000809191008260809391008091910081604A
:100C0000809391008091900081608093900080910A
:100C1000A10082608093A1008091A10081608093F7
:100C2000A1008091A00081608093A00080912101AB
:100C30008260809321018091210181608093210154
:100C40008091200181608093200180917A008460EE
:100C500080937A0080917A00826080937A008091FC
:100C60007A00816080937A0080917A008068809316
:100C70007A001092C100EFE9F1E02491E9E5F1E09A
:100C80008491882399F090E0880F991FFC01E85F18
:100C9000FE4FA591B491FC01E45CFE4F85919491C7
:100CA0008FB7F894EC91E22BEC938FBFEEE9F1E073
:100CB0002491E8E5F1E084918823C9F090E0880F61
:100CC000991FFC01E85FFE4F45915491FC01E45CE3
:100CD000FE4FA591B4919FB7F894FA0180812095B9
:100CE000822380838C91E22FE823EC939FBFE091D5
:100CF000C202F091C30282E08083E091BE02F091D3
:100D0000BF021082E091C002F091C1028FEC80839B
:100D10001092CA02E091C602F091C70286E0808379
:100D2000E091C402F091C502808180618083E091EE
:100D3000C402F091C502808188608083E091C40282
:100D4000F091C502808180688083E091C402F091B7
:100D5000C50280818F7D808393E0E92EF12C23E210
:100D6000C22ED12C3EE9232E31E0332E4AE0442E10
:100D7000512C612C712C80E087DAC7010197F1F7C3
:100D800081E082DAC6010197F1F780E07DDAF101B6
:100D90006491E8E5F1E08491E82FF0E0EE0FFF1FA9
:100DA000EE5DFE4F8591949100E412E42FE030E077
:100DB000462F69DE611571058105910549F0DC0159
:100DC000CB010196A11DB11DBC01CD019F7003C0D7
:100DD00060E070E0CB016093A5027093A60280935F
:100DE000A7029093A80293D026E933E44BE05DE399
:100DF000F2D020E030E040E05FE3EDD055D06093EA
:100E0000A1027093A2028093A3029093A40284E2B1
:100E100092E04DDC8090A1029090A202A090A302EB
:100E2000B090A402B7FE25C0E091B202F091B302E7
:100E30000190F081E02D6DE282EB92E0199522277E
:100E40003327A901281939094A095B0919A28E011A
:100E50000F5D1F4FCA01B901A301920147D1605D27
:100E6000F80162938F01211531054105510591F774
:100E700014C0A501940119A28E010F5D1F4FCA0174
:100E8000B901A301920132D1605DF80162938F0133
:100E9000211531054105510591F7C80108DC8FE2A4
:100EA00092E005DC64DB67CF04D06894B1118DC09B
:100EB000089570D088F09F5790F0B92F9927B751B7
:100EC000A0F0D1F0660F771F881F991F1AF0BA950E
:100ED000C9F712C0B13081F077D0B1E0089574C085
:100EE000672F782F8827B85F39F0B93FCCF3869504
:100EF00077956795B395D9F73EF490958095709561
:100F000061957F4F8F4F9F4F0895E89409C097FBDD
:100F10003EF490958095709561957F4F8F4F9F4FD0
:100F20009923A9F0F92F96E9BB279395F695879514
:100F300077956795B795F111F8CFFAF4BB0F11F4D7
:100F400060FF1BC06F5F7F4F8F4F9F4F16C088237E
:100F500011F096E911C0772321F09EE8872F762FB4
:100F600005C0662371F096E8862F70E060E02AF0F5
:100F70009A95660F771F881FDAF7880F96958795E1
:100F800097F9089557FD9058440F551F59F05F3F4A
:100F900071F04795880F97FB991F61F09F3F79F09B
:100FA00087950895121613061406551FF2CF46951D
:100FB000F1DF08C0161617061806991FF1CF86959F
:100FC0007105610508940895E894BB276627772783
:100FD000CB0197F908950BD078C069D028F06ED076
:100FE00018F0952309F05AC05FC01124EECFCADF74
:100FF000A0F3959FD1F3950F50E0551F629FF0012C
:10100000729FBB27F00DB11D639FAA27F00DB11D84
:10101000AA1F649F6627B00DA11D661F829F22270D
:10102000B00DA11D621F739FB00DA11D621F839F94
:10103000A00D611D221F749F3327A00D611D231F6A
:10104000849F600D211D822F762F6A2F11249F57B8
:1010500050408AF0E1F088234AF0EE0FFF1FBB1FDB
:10106000661F771F881F91505040A9F79E3F51057A
:1010700070F014C0AACF5F3FECF3983EDCF3869586
:1010800077956795B795F795E7959F5FC1F7FE2B25
:10109000880F911D9695879597F9089597F99F6701
:1010A00080E870E060E008959FEF80EC08950024F0
:1010B0000A941616170618060906089500240A94BD
:1010C00012161306140605060895092E0394000C43
:1010D00011F4882352F0BB0F40F4BF2B11F460FFD2
:1010E00004C06F5F7F4F8F4F9F4F0895A1E21A2E6C
:1010F000AA1BBB1BFD010DC0AA1FBB1FEE1FFF1FBC
:10110000A217B307E407F50720F0A21BB30BE40B0B
:10111000F50B661F771F881F991F1A9469F7609552
:101120007095809590959B01AC01BD01CF0108950C
:10113000EE0FFF1F881F8BBF0790F691E02D1994CB
:0C11400081E090E0F89400C0F894FFCF2C
:10114C00000000005002BE01E90196021A02F801EB
:10115C000C020000000047033303FE02EF02F6020C
:10116C00F302F00244697374616E63653A20000DFA
:02117C000A0067
:00000001FF
